{
  "_format": "hh-sol-artifact-1",
  "contractName": "AuthChainRegistry",
  "sourceName": "contracts/AuthChainRegistry.sol",
  "abi": [
    {
      "inputs": [],
      "stateMutability": "nonpayable",
      "type": "constructor"
    },
    {
      "anonymous": false,
      "inputs": [
        {
          "indexed": true,
          "internalType": "uint256",
          "name": "licenseId",
          "type": "uint256"
        },
        {
          "indexed": true,
          "internalType": "uint256",
          "name": "workId",
          "type": "uint256"
        },
        {
          "indexed": true,
          "internalType": "address",
          "name": "licensee",
          "type": "address"
        }
      ],
      "name": "LicenseActivated",
      "type": "event"
    },
    {
      "anonymous": false,
      "inputs": [
        {
          "indexed": true,
          "internalType": "uint256",
          "name": "licenseId",
          "type": "uint256"
        },
        {
          "indexed": true,
          "internalType": "uint256",
          "name": "workId",
          "type": "uint256"
        },
        {
          "indexed": true,
          "internalType": "address",
          "name": "licensee",
          "type": "address"
        },
        {
          "indexed": false,
          "internalType": "uint256",
          "name": "price",
          "type": "uint256"
        },
        {
          "indexed": false,
          "internalType": "uint256",
          "name": "duration",
          "type": "uint256"
        },
        {
          "indexed": false,
          "internalType": "string",
          "name": "usageType",
          "type": "string"
        }
      ],
      "name": "LicenseCreated",
      "type": "event"
    },
    {
      "anonymous": false,
      "inputs": [
        {
          "indexed": true,
          "internalType": "address",
          "name": "previousOwner",
          "type": "address"
        },
        {
          "indexed": true,
          "internalType": "address",
          "name": "newOwner",
          "type": "address"
        }
      ],
      "name": "OwnershipTransferred",
      "type": "event"
    },
    {
      "anonymous": false,
      "inputs": [
        {
          "indexed": true,
          "internalType": "uint256",
          "name": "workId",
          "type": "uint256"
        },
        {
          "indexed": true,
          "internalType": "address",
          "name": "creator",
          "type": "address"
        },
        {
          "indexed": false,
          "internalType": "uint256",
          "name": "amount",
          "type": "uint256"
        }
      ],
      "name": "RoyaltyDistributed",
      "type": "event"
    },
    {
      "anonymous": false,
      "inputs": [
        {
          "indexed": true,
          "internalType": "uint256",
          "name": "workId",
          "type": "uint256"
        },
        {
          "indexed": true,
          "internalType": "address",
          "name": "creator",
          "type": "address"
        },
        {
          "indexed": false,
          "internalType": "string",
          "name": "title",
          "type": "string"
        },
        {
          "indexed": false,
          "internalType": "string",
          "name": "ipfsHash",
          "type": "string"
        },
        {
          "indexed": false,
          "internalType": "uint256",
          "name": "timestamp",
          "type": "uint256"
        }
      ],
      "name": "WorkRegistered",
      "type": "event"
    },
    {
      "inputs": [
        {
          "internalType": "uint256",
          "name": "workId",
          "type": "uint256"
        },
        {
          "internalType": "uint256",
          "name": "price",
          "type": "uint256"
        },
        {
          "internalType": "uint256",
          "name": "duration",
          "type": "uint256"
        },
        {
          "internalType": "string",
          "name": "usageType",
          "type": "string"
        }
      ],
      "name": "createLicense",
      "outputs": [],
      "stateMutability": "nonpayable",
      "type": "function"
    },
    {
      "inputs": [
        {
          "internalType": "address",
          "name": "",
          "type": "address"
        },
        {
          "internalType": "uint256",
          "name": "",
          "type": "uint256"
        }
      ],
      "name": "creatorWorks",
      "outputs": [
        {
          "internalType": "uint256",
          "name": "",
          "type": "uint256"
        }
      ],
      "stateMutability": "view",
      "type": "function"
    },
    {
      "inputs": [
        {
          "internalType": "address",
          "name": "creator",
          "type": "address"
        }
      ],
      "name": "getCreatorWorks",
      "outputs": [
        {
          "internalType": "uint256[]",
          "name": "",
          "type": "uint256[]"
        }
      ],
      "stateMutability": "view",
      "type": "function"
    },
    {
      "inputs": [
        {
          "internalType": "uint256",
          "name": "licenseId",
          "type": "uint256"
        }
      ],
      "name": "getLicense",
      "outputs": [
        {
          "components": [
            {
              "internalType": "uint256",
              "name": "id",
              "type": "uint256"
            },
            {
              "internalType": "uint256",
              "name": "workId",
              "type": "uint256"
            },
            {
              "internalType": "address",
              "name": "licensee",
              "type": "address"
            },
            {
              "internalType": "uint256",
              "name": "price",
              "type": "uint256"
            },
            {
              "internalType": "uint256",
              "name": "duration",
              "type": "uint256"
            },
            {
              "internalType": "string",
              "name": "usageType",
              "type": "string"
            },
            {
              "internalType": "bool",
              "name": "active",
              "type": "bool"
            }
          ],
          "internalType": "struct AuthChainRegistry.License",
          "name": "",
          "type": "tuple"
        }
      ],
      "stateMutability": "view",
      "type": "function"
    },
    {
      "inputs": [
        {
          "internalType": "uint256",
          "name": "workId",
          "type": "uint256"
        }
      ],
      "name": "getWork",
      "outputs": [
        {
          "components": [
            {
              "internalType": "uint256",
              "name": "id",
              "type": "uint256"
            },
            {
              "internalType": "address",
              "name": "creator",
              "type": "address"
            },
            {
              "internalType": "string",
              "name": "title",
              "type": "string"
            },
            {
              "internalType": "string",
              "name": "ipfsHash",
              "type": "string"
            },
            {
              "internalType": "string",
              "name": "metadata",
              "type": "string"
            },
            {
              "internalType": "uint256",
              "name": "timestamp",
              "type": "uint256"
            }
          ],
          "internalType": "struct AuthChainRegistry.Work",
          "name": "",
          "type": "tuple"
        }
      ],
      "stateMutability": "view",
      "type": "function"
    },
    {
      "inputs": [
        {
          "internalType": "uint256",
          "name": "workId",
          "type": "uint256"
        }
      ],
      "name": "getWorkLicenses",
      "outputs": [
        {
          "internalType": "uint256[]",
          "name": "",
          "type": "uint256[]"
        }
      ],
      "stateMutability": "view",
      "type": "function"
    },
    {
      "inputs": [
        {
          "internalType": "uint256",
          "name": "",
          "type": "uint256"
        }
      ],
      "name": "licenses",
      "outputs": [
        {
          "internalType": "uint256",
          "name": "id",
          "type": "uint256"
        },
        {
          "internalType": "uint256",
          "name": "workId",
          "type": "uint256"
        },
        {
          "internalType": "address",
          "name": "licensee",
          "type": "address"
        },
        {
          "internalType": "uint256",
          "name": "price",
          "type": "uint256"
        },
        {
          "internalType": "uint256",
          "name": "duration",
          "type": "uint256"
        },
        {
          "internalType": "string",
          "name": "usageType",
          "type": "string"
        },
        {
          "internalType": "bool",
          "name": "active",
          "type": "bool"
        }
      ],
      "stateMutability": "view",
      "type": "function"
    },
    {
      "inputs": [],
      "name": "owner",
      "outputs": [
        {
          "internalType": "address",
          "name": "",
          "type": "address"
        }
      ],
      "stateMutability": "view",
      "type": "function"
    },
    {
      "inputs": [
        {
          "internalType": "uint256",
          "name": "licenseId",
          "type": "uint256"
        }
      ],
      "name": "purchaseLicense",
      "outputs": [],
      "stateMutability": "payable",
      "type": "function"
    },
    {
      "inputs": [
        {
          "internalType": "string",
          "name": "title",
          "type": "string"
        },
        {
          "internalType": "string",
          "name": "ipfsHash",
          "type": "string"
        },
        {
          "internalType": "string",
          "name": "metadata",
          "type": "string"
        }
      ],
      "name": "registerWork",
      "outputs": [],
      "stateMutability": "nonpayable",
      "type": "function"
    },
    {
      "inputs": [],
      "name": "renounceOwnership",
      "outputs": [],
      "stateMutability": "nonpayable",
      "type": "function"
    },
    {
      "inputs": [
        {
          "internalType": "address",
          "name": "newOwner",
          "type": "address"
        }
      ],
      "name": "transferOwnership",
      "outputs": [],
      "stateMutability": "nonpayable",
      "type": "function"
    },
    {
      "inputs": [],
      "name": "withdraw",
      "outputs": [],
      "stateMutability": "nonpayable",
      "type": "function"
    },
    {
      "inputs": [
        {
          "internalType": "uint256",
          "name": "",
          "type": "uint256"
        },
        {
          "internalType": "uint256",
          "name": "",
          "type": "uint256"
        }
      ],
      "name": "workToLicenses",
      "outputs": [
        {
          "internalType": "uint256",
          "name": "",
          "type": "uint256"
        }
      ],
      "stateMutability": "view",
      "type": "function"
    },
    {
      "inputs": [
        {
          "internalType": "uint256",
          "name": "",
          "type": "uint256"
        }
      ],
      "name": "works",
      "outputs": [
        {
          "internalType": "uint256",
          "name": "id",
          "type": "uint256"
        },
        {
          "internalType": "address",
          "name": "creator",
          "type": "address"
        },
        {
          "internalType": "string",
          "name": "title",
          "type": "string"
        },
        {
          "internalType": "string",
          "name": "ipfsHash",
          "type": "string"
        },
        {
          "internalType": "string",
          "name": "metadata",
          "type": "string"
        },
        {
          "internalType": "uint256",
          "name": "timestamp",
          "type": "uint256"
        }
      ],
      "stateMutability": "view",
      "type": "function"
    }
  ],
  "bytecode": "0x608060405234801561001057600080fd5b5061002d61002261005260201b60201c565b61005a60201b60201c565b61003d600161011e60201b60201c565b61004d600261011e60201b60201c565b610134565b600033905090565b60008060009054906101000a900473ffffffffffffffffffffffffffffffffffffffff169050816000806101000a81548173ffffffffffffffffffffffffffffffffffffffff021916908373ffffffffffffffffffffffffffffffffffffffff1602179055508173ffffffffffffffffffffffffffffffffffffffff168173ffffffffffffffffffffffffffffffffffffffff167f8be0079c531659141344cd1fd0a4f28419497f9722a3daafe3b4186f6b6457e060405160405180910390a35050565b6001816000016000828254019250508190555050565b6127dd806101436000396000f3fe6080604052600436106100e85760003560e01c80638da5cb5b1161008a578063c8a028a811610059578063c8a028a814610325578063e0dd922714610341578063ede845631461036a578063f2fde38b146103a7576100e8565b80638da5cb5b1461023e578063b2dd121214610269578063c585005a146102a6578063c66e1dd5146102e3576100e8565b8063502505e9116100c6578063502505e914610184578063573d21f3146101c15780636006838f146101fe578063715018a614610227576100e8565b80631762aa51146100ed578063337908451461012a5780633ccfd60b1461016d575b600080fd5b3480156100f957600080fd5b50610114600480360381019061010f919061182b565b6103d0565b604051610121919061187a565b60405180910390f35b34801561013657600080fd5b50610151600480360381019061014c9190611895565b610401565b604051610164979695949392919061197c565b60405180910390f35b34801561017957600080fd5b506101826104f8565b005b34801561019057600080fd5b506101ab60048036038101906101a69190611895565b6105bc565b6040516101b89190611ab0565b60405180910390f35b3480156101cd57600080fd5b506101e860048036038101906101e39190611895565b610680565b6040516101f59190611bc2565b60405180910390f35b34801561020a57600080fd5b5061022560048036038101906102209190611d19565b610926565b005b34801561023357600080fd5b5061023c610af3565b005b34801561024a57600080fd5b50610253610b07565b6040516102609190611dc0565b60405180910390f35b34801561027557600080fd5b50610290600480360381019061028b9190611895565b610b30565b60405161029d9190611e86565b60405180910390f35b3480156102b257600080fd5b506102cd60048036038101906102c89190611ea8565b610ce1565b6040516102da919061187a565b60405180910390f35b3480156102ef57600080fd5b5061030a60048036038101906103059190611895565b610d12565b60405161031c96959493929190611ee8565b60405180910390f35b61033f600480360381019061033a9190611895565b610f06565b005b34801561034d57600080fd5b5061036860048036038101906103639190611f5e565b611200565b005b34801561037657600080fd5b50610391600480360381019061038c9190611fe1565b61145a565b60405161039e9190611ab0565b60405180910390f35b3480156103b357600080fd5b506103ce60048036038101906103c99190611fe1565b6114f1565b005b600660205281600052604060002081815481106103ec57600080fd5b90600052602060002001600091509150505481565b60046020528060005260406000206000915090508060000154908060010154908060020160009054906101000a900473ffffffffffffffffffffffffffffffffffffffff16908060030154908060040154908060050180546104629061203d565b80601f016020809104026020016040519081016040528092919081815260200182805461048e9061203d565b80156104db5780601f106104b0576101008083540402835291602001916104db565b820191906000526020600020905b8154815290600101906020018083116104be57829003601f168201915b5050505050908060060160009054906101000a900460ff16905087565b610500611574565b6000479050600061050f610b07565b73ffffffffffffffffffffffffffffffffffffffff16826040516105329061209f565b60006040518083038185875af1925050503d806000811461056f576040519150601f19603f3d011682016040523d82523d6000602084013e610574565b606091505b50509050806105b8576040517f08c379a00000000000000000000000000000000000000000000000000000000081526004016105af90612100565b60405180910390fd5b5050565b60606000600360008481526020019081526020016000206000015403610617576040517f08c379a000000000000000000000000000000000000000000000000000000000815260040161060e9061216c565b60405180910390fd5b6005600083815260200190815260200160002080548060200260200160405190810160405280929190818152602001828054801561067457602002820191906000526020600020905b815481526020019060010190808311610660575b50505050509050919050565b6106886116e2565b60006003600084815260200190815260200160002060000154036106e1576040517f08c379a00000000000000000000000000000000000000000000000000000000081526004016106d89061216c565b60405180910390fd5b600360008381526020019081526020016000206040518060c0016040529081600082015481526020016001820160009054906101000a900473ffffffffffffffffffffffffffffffffffffffff1673ffffffffffffffffffffffffffffffffffffffff1673ffffffffffffffffffffffffffffffffffffffff16815260200160028201805461076f9061203d565b80601f016020809104026020016040519081016040528092919081815260200182805461079b9061203d565b80156107e85780601f106107bd576101008083540402835291602001916107e8565b820191906000526020600020905b8154815290600101906020018083116107cb57829003601f168201915b505050505081526020016003820180546108019061203d565b80601f016020809104026020016040519081016040528092919081815260200182805461082d9061203d565b801561087a5780601f1061084f5761010080835404028352916020019161087a565b820191906000526020600020905b81548152906001019060200180831161085d57829003601f168201915b505050505081526020016004820180546108939061203d565b80601f01602080910402602001604051908101604052809291908181526020018280546108bf9061203d565b801561090c5780601f106108e15761010080835404028352916020019161090c565b820191906000526020600020905b8154815290600101906020018083116108ef57829003601f168201915b505050505081526020016005820154815250509050919050565b600061093260016115f2565b90506040518060c001604052808281526020013373ffffffffffffffffffffffffffffffffffffffff16815260200185815260200184815260200183815260200142815250600360008381526020019081526020016000206000820151816000015560208201518160010160006101000a81548173ffffffffffffffffffffffffffffffffffffffff021916908373ffffffffffffffffffffffffffffffffffffffff16021790555060408201518160020190816109f09190612338565b506060820151816003019081610a069190612338565b506080820151816004019081610a1c9190612338565b5060a08201518160050155905050600660003373ffffffffffffffffffffffffffffffffffffffff1673ffffffffffffffffffffffffffffffffffffffff168152602001908152602001600020819080600181540180825580915050600190039060005260206000200160009091909190915055610a9a6001611600565b3373ffffffffffffffffffffffffffffffffffffffff16817f691a83fa6f70dcf5e0a5d7cfe87caccd6725ac7cb7f1e24ede39c847c5639185868642604051610ae59392919061240a565b60405180910390a350505050565b610afb611574565b610b056000611616565b565b60008060009054906101000a900473ffffffffffffffffffffffffffffffffffffffff16905090565b610b3861172e565b6000600460008481526020019081526020016000206000015403610b91576040517f08c379a0000000000000000000000000000000000000000000000000000000008152600401610b889061249b565b60405180910390fd5b600460008381526020019081526020016000206040518060e001604052908160008201548152602001600182015481526020016002820160009054906101000a900473ffffffffffffffffffffffffffffffffffffffff1673ffffffffffffffffffffffffffffffffffffffff1673ffffffffffffffffffffffffffffffffffffffff1681526020016003820154815260200160048201548152602001600582018054610c3d9061203d565b80601f0160208091040260200160405190810160405280929190818152602001828054610c699061203d565b8015610cb65780601f10610c8b57610100808354040283529160200191610cb6565b820191906000526020600020905b815481529060010190602001808311610c9957829003601f168201915b505050505081526020016006820160009054906101000a900460ff1615151515815250509050919050565b60056020528160005260406000208181548110610cfd57600080fd5b90600052602060002001600091509150505481565b60036020528060005260406000206000915090508060000154908060010160009054906101000a900473ffffffffffffffffffffffffffffffffffffffff1690806002018054610d619061203d565b80601f0160208091040260200160405190810160405280929190818152602001828054610d8d9061203d565b8015610dda5780601f10610daf57610100808354040283529160200191610dda565b820191906000526020600020905b815481529060010190602001808311610dbd57829003601f168201915b505050505090806003018054610def9061203d565b80601f0160208091040260200160405190810160405280929190818152602001828054610e1b9061203d565b8015610e685780601f10610e3d57610100808354040283529160200191610e68565b820191906000526020600020905b815481529060010190602001808311610e4b57829003601f168201915b505050505090806004018054610e7d9061203d565b80601f0160208091040260200160405190810160405280929190818152602001828054610ea99061203d565b8015610ef65780601f10610ecb57610100808354040283529160200191610ef6565b820191906000526020600020905b815481529060010190602001808311610ed957829003601f168201915b5050505050908060050154905086565b60006004600083815260200190815260200160002090508060060160009054906101000a900460ff1615610f6f576040517f08c379a0000000000000000000000000000000000000000000000000000000008152600401610f6690612507565b60405180910390fd5b8060030154341015610fb6576040517f08c379a0000000000000000000000000000000000000000000000000000000008152600401610fad90612573565b60405180910390fd5b600060036000836001015481526020019081526020016000206000015403611013576040517f08c379a000000000000000000000000000000000000000000000000000000000815260040161100a9061216c565b60405180910390fd5b338160020160006101000a81548173ffffffffffffffffffffffffffffffffffffffff021916908373ffffffffffffffffffffffffffffffffffffffff16021790555060018160060160006101000a81548160ff0219169083151502179055506000600360008360010154815260200190815260200160002060010160009054906101000a900473ffffffffffffffffffffffffffffffffffffffff16905060008173ffffffffffffffffffffffffffffffffffffffff16346040516110d89061209f565b60006040518083038185875af1925050503d8060008114611115576040519150601f19603f3d011682016040523d82523d6000602084013e61111a565b606091505b505090508061115e576040517f08c379a0000000000000000000000000000000000000000000000000000000008152600401611155906125df565b60405180910390fd5b3373ffffffffffffffffffffffffffffffffffffffff168360010154857f9523e47a1dba82b890c0ea360ff70577dc86c924b96882d750ba484948b2377660405160405180910390a48173ffffffffffffffffffffffffffffffffffffffff1683600101547fff50aeaf5513a2bfcf5c38af0d681d05e9a00cd91cc42ab2e143549595e5f172346040516111f2919061187a565b60405180910390a350505050565b3373ffffffffffffffffffffffffffffffffffffffff166003600086815260200190815260200160002060010160009054906101000a900473ffffffffffffffffffffffffffffffffffffffff1673ffffffffffffffffffffffffffffffffffffffff16146112a4576040517f08c379a000000000000000000000000000000000000000000000000000000000815260040161129b9061264b565b60405180910390fd5b60006112b060026115f2565b90506040518060e00160405280828152602001868152602001600073ffffffffffffffffffffffffffffffffffffffff1681526020018581526020018481526020018381526020016000151581525060046000838152602001908152602001600020600082015181600001556020820151816001015560408201518160020160006101000a81548173ffffffffffffffffffffffffffffffffffffffff021916908373ffffffffffffffffffffffffffffffffffffffff160217905550606082015181600301556080820151816004015560a08201518160050190816113969190612338565b5060c08201518160060160006101000a81548160ff021916908315150217905550905050600560008681526020019081526020016000208190806001815401808255809150506001900390600052602060002001600090919091909150556113fe6002611600565b600073ffffffffffffffffffffffffffffffffffffffff1685827ff6c08ab32de41b354144afe5fba73e1057289b82f752874cffd38061719c647687878760405161144b9392919061266b565b60405180910390a45050505050565b6060600660008373ffffffffffffffffffffffffffffffffffffffff1673ffffffffffffffffffffffffffffffffffffffff1681526020019081526020016000208054806020026020016040519081016040528092919081815260200182805480156114e557602002820191906000526020600020905b8154815260200190600101908083116114d1575b50505050509050919050565b6114f9611574565b600073ffffffffffffffffffffffffffffffffffffffff168173ffffffffffffffffffffffffffffffffffffffff1603611568576040517f08c379a000000000000000000000000000000000000000000000000000000000815260040161155f9061271b565b60405180910390fd5b61157181611616565b50565b61157c6116da565b73ffffffffffffffffffffffffffffffffffffffff1661159a610b07565b73ffffffffffffffffffffffffffffffffffffffff16146115f0576040517f08c379a00000000000000000000000000000000000000000000000000000000081526004016115e790612787565b60405180910390fd5b565b600081600001549050919050565b6001816000016000828254019250508190555050565b60008060009054906101000a900473ffffffffffffffffffffffffffffffffffffffff169050816000806101000a81548173ffffffffffffffffffffffffffffffffffffffff021916908373ffffffffffffffffffffffffffffffffffffffff1602179055508173ffffffffffffffffffffffffffffffffffffffff168173ffffffffffffffffffffffffffffffffffffffff167f8be0079c531659141344cd1fd0a4f28419497f9722a3daafe3b4186f6b6457e060405160405180910390a35050565b600033905090565b6040518060c0016040528060008152602001600073ffffffffffffffffffffffffffffffffffffffff168152602001606081526020016060815260200160608152602001600081525090565b6040518060e001604052806000815260200160008152602001600073ffffffffffffffffffffffffffffffffffffffff1681526020016000815260200160008152602001606081526020016000151581525090565b6000604051905090565b600080fd5b600080fd5b600073ffffffffffffffffffffffffffffffffffffffff82169050919050565b60006117c282611797565b9050919050565b6117d2816117b7565b81146117dd57600080fd5b50565b6000813590506117ef816117c9565b92915050565b6000819050919050565b611808816117f5565b811461181357600080fd5b50565b600081359050611825816117ff565b92915050565b600080604083850312156118425761184161178d565b5b6000611850858286016117e0565b925050602061186185828601611816565b9150509250929050565b611874816117f5565b82525050565b600060208201905061188f600083018461186b565b92915050565b6000602082840312156118ab576118aa61178d565b5b60006118b984828501611816565b91505092915050565b6118cb816117b7565b82525050565b600081519050919050565b600082825260208201905092915050565b60005b8381101561190b5780820151818401526020810190506118f0565b60008484015250505050565b6000601f19601f8301169050919050565b6000611933826118d1565b61193d81856118dc565b935061194d8185602086016118ed565b61195681611917565b840191505092915050565b60008115159050919050565b61197681611961565b82525050565b600060e082019050611991600083018a61186b565b61199e602083018961186b565b6119ab60408301886118c2565b6119b8606083018761186b565b6119c5608083018661186b565b81810360a08301526119d78185611928565b90506119e660c083018461196d565b98975050505050505050565b600081519050919050565b600082825260208201905092915050565b6000819050602082019050919050565b611a27816117f5565b82525050565b6000611a398383611a1e565b60208301905092915050565b6000602082019050919050565b6000611a5d826119f2565b611a6781856119fd565b9350611a7283611a0e565b8060005b83811015611aa3578151611a8a8882611a2d565b9750611a9583611a45565b925050600181019050611a76565b5085935050505092915050565b60006020820190508181036000830152611aca8184611a52565b905092915050565b611adb816117b7565b82525050565b600082825260208201905092915050565b6000611afd826118d1565b611b078185611ae1565b9350611b178185602086016118ed565b611b2081611917565b840191505092915050565b600060c083016000830151611b436000860182611a1e565b506020830151611b566020860182611ad2565b5060408301518482036040860152611b6e8282611af2565b91505060608301518482036060860152611b888282611af2565b91505060808301518482036080860152611ba28282611af2565b91505060a0830151611bb760a0860182611a1e565b508091505092915050565b60006020820190508181036000830152611bdc8184611b2b565b905092915050565b600080fd5b600080fd5b7f4e487b7100000000000000000000000000000000000000000000000000000000600052604160045260246000fd5b611c2682611917565b810181811067ffffffffffffffff82111715611c4557611c44611bee565b5b80604052505050565b6000611c58611783565b9050611c648282611c1d565b919050565b600067ffffffffffffffff821115611c8457611c83611bee565b5b611c8d82611917565b9050602081019050919050565b82818337600083830152505050565b6000611cbc611cb784611c69565b611c4e565b905082815260208101848484011115611cd857611cd7611be9565b5b611ce3848285611c9a565b509392505050565b600082601f830112611d0057611cff611be4565b5b8135611d10848260208601611ca9565b91505092915050565b600080600060608486031215611d3257611d3161178d565b5b600084013567ffffffffffffffff811115611d5057611d4f611792565b5b611d5c86828701611ceb565b935050602084013567ffffffffffffffff811115611d7d57611d7c611792565b5b611d8986828701611ceb565b925050604084013567ffffffffffffffff811115611daa57611da9611792565b5b611db686828701611ceb565b9150509250925092565b6000602082019050611dd560008301846118c2565b92915050565b611de481611961565b82525050565b600060e083016000830151611e026000860182611a1e565b506020830151611e156020860182611a1e565b506040830151611e286040860182611ad2565b506060830151611e3b6060860182611a1e565b506080830151611e4e6080860182611a1e565b5060a083015184820360a0860152611e668282611af2565b91505060c0830151611e7b60c0860182611ddb565b508091505092915050565b60006020820190508181036000830152611ea08184611dea565b905092915050565b60008060408385031215611ebf57611ebe61178d565b5b6000611ecd85828601611816565b9250506020611ede85828601611816565b9150509250929050565b600060c082019050611efd600083018961186b565b611f0a60208301886118c2565b8181036040830152611f1c8187611928565b90508181036060830152611f308186611928565b90508181036080830152611f448185611928565b9050611f5360a083018461186b565b979650505050505050565b60008060008060808587031215611f7857611f7761178d565b5b6000611f8687828801611816565b9450506020611f9787828801611816565b9350506040611fa887828801611816565b925050606085013567ffffffffffffffff811115611fc957611fc8611792565b5b611fd587828801611ceb565b91505092959194509250565b600060208284031215611ff757611ff661178d565b5b6000612005848285016117e0565b91505092915050565b7f4e487b7100000000000000000000000000000000000000000000000000000000600052602260045260246000fd5b6000600282049050600182168061205557607f821691505b6020821081036120685761206761200e565b5b50919050565b600081905092915050565b50565b600061208960008361206e565b915061209482612079565b600082019050919050565b60006120aa8261207c565b9150819050919050565b7f5769746864726177616c206661696c6564000000000000000000000000000000600082015250565b60006120ea6011836118dc565b91506120f5826120b4565b602082019050919050565b60006020820190508181036000830152612119816120dd565b9050919050565b7f576f726b20646f6573206e6f7420657869737400000000000000000000000000600082015250565b60006121566013836118dc565b915061216182612120565b602082019050919050565b6000602082019050818103600083015261218581612149565b9050919050565b60008190508160005260206000209050919050565b60006020601f8301049050919050565b600082821b905092915050565b6000600883026121ee7fffffffffffffffffffffffffffffffffffffffffffffffffffffffffffffffff826121b1565b6121f886836121b1565b95508019841693508086168417925050509392505050565b6000819050919050565b600061223561223061222b846117f5565b612210565b6117f5565b9050919050565b6000819050919050565b61224f8361221a565b61226361225b8261223c565b8484546121be565b825550505050565b600090565b61227861226b565b612283818484612246565b505050565b5b818110156122a75761229c600082612270565b600181019050612289565b5050565b601f8211156122ec576122bd8161218c565b6122c6846121a1565b810160208510156122d5578190505b6122e96122e1856121a1565b830182612288565b50505b505050565b600082821c905092915050565b600061230f600019846008026122f1565b1980831691505092915050565b600061232883836122fe565b9150826002028217905092915050565b612341826118d1565b67ffffffffffffffff81111561235a57612359611bee565b5b612364825461203d565b61236f8282856122ab565b600060209050601f8311600181146123a25760008415612390578287015190505b61239a858261231c565b865550612402565b601f1984166123b08661218c565b60005b828110156123d8578489015182556001820191506020850194506020810190506123b3565b868310156123f557848901516123f1601f8916826122fe565b8355505b6001600288020188555050505b505050505050565b600060608201905081810360008301526124248186611928565b905081810360208301526124388185611928565b9050612447604083018461186b565b949350505050565b7f4c6963656e736520646f6573206e6f7420657869737400000000000000000000600082015250565b60006124856016836118dc565b91506124908261244f565b602082019050919050565b600060208201905081810360008301526124b481612478565b9050919050565b7f4c6963656e736520616c72656164792061637469766500000000000000000000600082015250565b60006124f16016836118dc565b91506124fc826124bb565b602082019050919050565b60006020820190508181036000830152612520816124e4565b9050919050565b7f496e73756666696369656e74207061796d656e74000000000000000000000000600082015250565b600061255d6014836118dc565b915061256882612527565b602082019050919050565b6000602082019050818103600083015261258c81612550565b9050919050565b7f526f79616c747920646973747269627574696f6e206661696c65640000000000600082015250565b60006125c9601b836118dc565b91506125d482612593565b602082019050919050565b600060208201905081810360008301526125f8816125bc565b9050919050565b7f4f6e6c792063726561746f722063616e20637265617465206c6963656e736573600082015250565b60006126356020836118dc565b9150612640826125ff565b602082019050919050565b6000602082019050818103600083015261266481612628565b9050919050565b6000606082019050612680600083018661186b565b61268d602083018561186b565b818103604083015261269f8184611928565b9050949350505050565b7f4f776e61626c653a206e6577206f776e657220697320746865207a65726f206160008201527f6464726573730000000000000000000000000000000000000000000000000000602082015250565b60006127056026836118dc565b9150612710826126a9565b604082019050919050565b60006020820190508181036000830152612734816126f8565b9050919050565b7f4f776e61626c653a2063616c6c6572206973206e6f7420746865206f776e6572600082015250565b60006127716020836118dc565b915061277c8261273b565b602082019050919050565b600060208201905081810360008301526127a081612764565b905091905056fea2646970667358221220eb347d96424b19248c4ecca62e1d88a534279bed6f7f666f093d49414ddbc58a64736f6c634300081c0033",
  "linkReferences": {},
  "deployedLinkReferences": {}
}