{
  "_format": "hh-sol-artifact-1",
  "contractName": "AuthChainRegistry",
  "sourceName": "contracts/AuthChainRegistry.sol",
  "abi": [
    {
      "inputs": [],
      "stateMutability": "nonpayable",
      "type": "constructor"
    },
    {
      "anonymous": false,
      "inputs": [
        {
          "indexed": true,
          "internalType": "uint256",
          "name": "licenseId",
          "type": "uint256"
        },
        {
          "indexed": true,
          "internalType": "uint256",
          "name": "workId",
          "type": "uint256"
        },
        {
          "indexed": true,
          "internalType": "address",
          "name": "licensee",
          "type": "address"
        }
      ],
      "name": "LicenseActivated",
      "type": "event"
    },
    {
      "anonymous": false,
      "inputs": [
        {
          "indexed": true,
          "internalType": "uint256",
          "name": "licenseId",
          "type": "uint256"
        },
        {
          "indexed": true,
          "internalType": "uint256",
          "name": "workId",
          "type": "uint256"
        },
        {
          "indexed": true,
          "internalType": "address",
          "name": "licensee",
          "type": "address"
        },
        {
          "indexed": false,
          "internalType": "uint256",
          "name": "price",
          "type": "uint256"
        },
        {
          "indexed": false,
          "internalType": "uint256",
          "name": "duration",
          "type": "uint256"
        },
        {
          "indexed": false,
          "internalType": "string",
          "name": "usageType",
          "type": "string"
        }
      ],
      "name": "LicenseCreated",
      "type": "event"
    },
    {
      "anonymous": false,
      "inputs": [
        {
          "indexed": true,
          "internalType": "address",
          "name": "previousOwner",
          "type": "address"
        },
        {
          "indexed": true,
          "internalType": "address",
          "name": "newOwner",
          "type": "address"
        }
      ],
      "name": "OwnershipTransferred",
      "type": "event"
    },
    {
      "anonymous": false,
      "inputs": [
        {
          "indexed": true,
          "internalType": "uint256",
          "name": "workId",
          "type": "uint256"
        },
        {
          "indexed": true,
          "internalType": "address",
          "name": "creator",
          "type": "address"
        },
        {
          "indexed": false,
          "internalType": "uint256",
          "name": "amount",
          "type": "uint256"
        }
      ],
      "name": "RoyaltyDistributed",
      "type": "event"
    },
    {
      "anonymous": false,
      "inputs": [
        {
          "indexed": true,
          "internalType": "uint256",
          "name": "workId",
          "type": "uint256"
        },
        {
          "indexed": true,
          "internalType": "address",
          "name": "creator",
          "type": "address"
        },
        {
          "indexed": false,
          "internalType": "string",
          "name": "title",
          "type": "string"
        },
        {
          "indexed": false,
          "internalType": "string",
          "name": "ipfsHash",
          "type": "string"
        },
        {
          "indexed": false,
          "internalType": "uint256",
          "name": "timestamp",
          "type": "uint256"
        }
      ],
      "name": "WorkRegistered",
      "type": "event"
    },
    {
      "inputs": [
        {
          "internalType": "uint256",
          "name": "workId",
          "type": "uint256"
        },
        {
          "internalType": "uint256",
          "name": "price",
          "type": "uint256"
        },
        {
          "internalType": "uint256",
          "name": "duration",
          "type": "uint256"
        },
        {
          "internalType": "string",
          "name": "usageType",
          "type": "string"
        }
      ],
      "name": "createLicense",
      "outputs": [],
      "stateMutability": "nonpayable",
      "type": "function"
    },
    {
      "inputs": [
        {
          "internalType": "address",
          "name": "",
          "type": "address"
        },
        {
          "internalType": "uint256",
          "name": "",
          "type": "uint256"
        }
      ],
      "name": "creatorWorks",
      "outputs": [
        {
          "internalType": "uint256",
          "name": "",
          "type": "uint256"
        }
      ],
      "stateMutability": "view",
      "type": "function"
    },
    {
      "inputs": [
        {
          "internalType": "address",
          "name": "creator",
          "type": "address"
        }
      ],
      "name": "getCreatorWorks",
      "outputs": [
        {
          "internalType": "uint256[]",
          "name": "",
          "type": "uint256[]"
        }
      ],
      "stateMutability": "view",
      "type": "function"
    },
    {
      "inputs": [
        {
          "internalType": "uint256",
          "name": "licenseId",
          "type": "uint256"
        }
      ],
      "name": "getLicense",
      "outputs": [
        {
          "components": [
            {
              "internalType": "uint256",
              "name": "id",
              "type": "uint256"
            },
            {
              "internalType": "uint256",
              "name": "workId",
              "type": "uint256"
            },
            {
              "internalType": "address",
              "name": "licensee",
              "type": "address"
            },
            {
              "internalType": "uint256",
              "name": "price",
              "type": "uint256"
            },
            {
              "internalType": "uint256",
              "name": "duration",
              "type": "uint256"
            },
            {
              "internalType": "string",
              "name": "usageType",
              "type": "string"
            },
            {
              "internalType": "bool",
              "name": "active",
              "type": "bool"
            }
          ],
          "internalType": "struct AuthChainRegistry.License",
          "name": "",
          "type": "tuple"
        }
      ],
      "stateMutability": "view",
      "type": "function"
    },
    {
      "inputs": [
        {
          "internalType": "uint256",
          "name": "workId",
          "type": "uint256"
        }
      ],
      "name": "getWork",
      "outputs": [
        {
          "components": [
            {
              "internalType": "uint256",
              "name": "id",
              "type": "uint256"
            },
            {
              "internalType": "address",
              "name": "creator",
              "type": "address"
            },
            {
              "internalType": "string",
              "name": "title",
              "type": "string"
            },
            {
              "internalType": "string",
              "name": "ipfsHash",
              "type": "string"
            },
            {
              "internalType": "string",
              "name": "metadata",
              "type": "string"
            },
            {
              "internalType": "uint256",
              "name": "timestamp",
              "type": "uint256"
            }
          ],
          "internalType": "struct AuthChainRegistry.Work",
          "name": "",
          "type": "tuple"
        }
      ],
      "stateMutability": "view",
      "type": "function"
    },
    {
      "inputs": [],
      "name": "getWorkCount",
      "outputs": [
        {
          "internalType": "uint256",
          "name": "",
          "type": "uint256"
        }
      ],
      "stateMutability": "view",
      "type": "function"
    },
    {
      "inputs": [
        {
          "internalType": "uint256",
          "name": "workId",
          "type": "uint256"
        }
      ],
      "name": "getWorkLicenses",
      "outputs": [
        {
          "internalType": "uint256[]",
          "name": "",
          "type": "uint256[]"
        }
      ],
      "stateMutability": "view",
      "type": "function"
    },
    {
      "inputs": [
        {
          "internalType": "uint256",
          "name": "",
          "type": "uint256"
        }
      ],
      "name": "licenses",
      "outputs": [
        {
          "internalType": "uint256",
          "name": "id",
          "type": "uint256"
        },
        {
          "internalType": "uint256",
          "name": "workId",
          "type": "uint256"
        },
        {
          "internalType": "address",
          "name": "licensee",
          "type": "address"
        },
        {
          "internalType": "uint256",
          "name": "price",
          "type": "uint256"
        },
        {
          "internalType": "uint256",
          "name": "duration",
          "type": "uint256"
        },
        {
          "internalType": "string",
          "name": "usageType",
          "type": "string"
        },
        {
          "internalType": "bool",
          "name": "active",
          "type": "bool"
        }
      ],
      "stateMutability": "view",
      "type": "function"
    },
    {
      "inputs": [],
      "name": "owner",
      "outputs": [
        {
          "internalType": "address",
          "name": "",
          "type": "address"
        }
      ],
      "stateMutability": "view",
      "type": "function"
    },
    {
      "inputs": [
        {
          "internalType": "uint256",
          "name": "licenseId",
          "type": "uint256"
        }
      ],
      "name": "purchaseLicense",
      "outputs": [],
      "stateMutability": "payable",
      "type": "function"
    },
    {
      "inputs": [
        {
          "internalType": "string",
          "name": "title",
          "type": "string"
        },
        {
          "internalType": "string",
          "name": "ipfsHash",
          "type": "string"
        },
        {
          "internalType": "string",
          "name": "metadata",
          "type": "string"
        }
      ],
      "name": "registerWork",
      "outputs": [],
      "stateMutability": "nonpayable",
      "type": "function"
    },
    {
      "inputs": [],
      "name": "renounceOwnership",
      "outputs": [],
      "stateMutability": "nonpayable",
      "type": "function"
    },
    {
      "inputs": [
        {
          "internalType": "address",
          "name": "newOwner",
          "type": "address"
        }
      ],
      "name": "transferOwnership",
      "outputs": [],
      "stateMutability": "nonpayable",
      "type": "function"
    },
    {
      "inputs": [],
      "name": "withdraw",
      "outputs": [],
      "stateMutability": "nonpayable",
      "type": "function"
    },
    {
      "inputs": [
        {
          "internalType": "uint256",
          "name": "",
          "type": "uint256"
        },
        {
          "internalType": "uint256",
          "name": "",
          "type": "uint256"
        }
      ],
      "name": "workToLicenses",
      "outputs": [
        {
          "internalType": "uint256",
          "name": "",
          "type": "uint256"
        }
      ],
      "stateMutability": "view",
      "type": "function"
    },
    {
      "inputs": [
        {
          "internalType": "uint256",
          "name": "",
          "type": "uint256"
        }
      ],
      "name": "works",
      "outputs": [
        {
          "internalType": "uint256",
          "name": "id",
          "type": "uint256"
        },
        {
          "internalType": "address",
          "name": "creator",
          "type": "address"
        },
        {
          "internalType": "string",
          "name": "title",
          "type": "string"
        },
        {
          "internalType": "string",
          "name": "ipfsHash",
          "type": "string"
        },
        {
          "internalType": "string",
          "name": "metadata",
          "type": "string"
        },
        {
          "internalType": "uint256",
          "name": "timestamp",
          "type": "uint256"
        }
      ],
      "stateMutability": "view",
      "type": "function"
    }
  ],
  "bytecode": "0x608060405234801561001057600080fd5b5061002d61002261005260201b60201c565b61005a60201b60201c565b61003d600161011e60201b60201c565b61004d600261011e60201b60201c565b610134565b600033905090565b60008060009054906101000a900473ffffffffffffffffffffffffffffffffffffffff169050816000806101000a81548173ffffffffffffffffffffffffffffffffffffffff021916908373ffffffffffffffffffffffffffffffffffffffff1602179055508173ffffffffffffffffffffffffffffffffffffffff168173ffffffffffffffffffffffffffffffffffffffff167f8be0079c531659141344cd1fd0a4f28419497f9722a3daafe3b4186f6b6457e060405160405180910390a35050565b6001816000016000828254019250508190555050565b612824806101436000396000f3fe6080604052600436106100f35760003560e01c80639b97cee51161008a578063c8a028a811610059578063c8a028a81461035b578063e0dd922714610377578063ede84563146103a0578063f2fde38b146103dd576100f3565b80639b97cee514610274578063b2dd12121461029f578063c585005a146102dc578063c66e1dd514610319576100f3565b8063573d21f3116100c6578063573d21f3146101cc5780636006838f14610209578063715018a6146102325780638da5cb5b14610249576100f3565b80631762aa51146100f857806333790845146101355780633ccfd60b14610178578063502505e91461018f575b600080fd5b34801561010457600080fd5b5061011f600480360381019061011a9190611872565b610406565b60405161012c91906118c1565b60405180910390f35b34801561014157600080fd5b5061015c600480360381019061015791906118dc565b610437565b60405161016f97969594939291906119c3565b60405180910390f35b34801561018457600080fd5b5061018d61052e565b005b34801561019b57600080fd5b506101b660048036038101906101b191906118dc565b6105f2565b6040516101c39190611af7565b60405180910390f35b3480156101d857600080fd5b506101f360048036038101906101ee91906118dc565b6106b6565b6040516102009190611c09565b60405180910390f35b34801561021557600080fd5b50610230600480360381019061022b9190611d60565b61095c565b005b34801561023e57600080fd5b50610247610b29565b005b34801561025557600080fd5b5061025e610b3d565b60405161026b9190611e07565b60405180910390f35b34801561028057600080fd5b50610289610b66565b60405161029691906118c1565b60405180910390f35b3480156102ab57600080fd5b506102c660048036038101906102c191906118dc565b610b77565b6040516102d39190611ecd565b60405180910390f35b3480156102e857600080fd5b5061030360048036038101906102fe9190611eef565b610d28565b60405161031091906118c1565b60405180910390f35b34801561032557600080fd5b50610340600480360381019061033b91906118dc565b610d59565b60405161035296959493929190611f2f565b60405180910390f35b610375600480360381019061037091906118dc565b610f4d565b005b34801561038357600080fd5b5061039e60048036038101906103999190611fa5565b611247565b005b3480156103ac57600080fd5b506103c760048036038101906103c29190612028565b6114a1565b6040516103d49190611af7565b60405180910390f35b3480156103e957600080fd5b5061040460048036038101906103ff9190612028565b611538565b005b6006602052816000526040600020818154811061042257600080fd5b90600052602060002001600091509150505481565b60046020528060005260406000206000915090508060000154908060010154908060020160009054906101000a900473ffffffffffffffffffffffffffffffffffffffff169080600301549080600401549080600501805461049890612084565b80601f01602080910402602001604051908101604052809291908181526020018280546104c490612084565b80156105115780601f106104e657610100808354040283529160200191610511565b820191906000526020600020905b8154815290600101906020018083116104f457829003601f168201915b5050505050908060060160009054906101000a900460ff16905087565b6105366115bb565b60004790506000610545610b3d565b73ffffffffffffffffffffffffffffffffffffffff1682604051610568906120e6565b60006040518083038185875af1925050503d80600081146105a5576040519150601f19603f3d011682016040523d82523d6000602084013e6105aa565b606091505b50509050806105ee576040517f08c379a00000000000000000000000000000000000000000000000000000000081526004016105e590612147565b60405180910390fd5b5050565b6060600060036000848152602001908152602001600020600001540361064d576040517f08c379a0000000000000000000000000000000000000000000000000000000008152600401610644906121b3565b60405180910390fd5b600560008381526020019081526020016000208054806020026020016040519081016040528092919081815260200182805480156106aa57602002820191906000526020600020905b815481526020019060010190808311610696575b50505050509050919050565b6106be611729565b6000600360008481526020019081526020016000206000015403610717576040517f08c379a000000000000000000000000000000000000000000000000000000000815260040161070e906121b3565b60405180910390fd5b600360008381526020019081526020016000206040518060c0016040529081600082015481526020016001820160009054906101000a900473ffffffffffffffffffffffffffffffffffffffff1673ffffffffffffffffffffffffffffffffffffffff1673ffffffffffffffffffffffffffffffffffffffff1681526020016002820180546107a590612084565b80601f01602080910402602001604051908101604052809291908181526020018280546107d190612084565b801561081e5780601f106107f35761010080835404028352916020019161081e565b820191906000526020600020905b81548152906001019060200180831161080157829003601f168201915b5050505050815260200160038201805461083790612084565b80601f016020809104026020016040519081016040528092919081815260200182805461086390612084565b80156108b05780601f10610885576101008083540402835291602001916108b0565b820191906000526020600020905b81548152906001019060200180831161089357829003601f168201915b505050505081526020016004820180546108c990612084565b80601f01602080910402602001604051908101604052809291908181526020018280546108f590612084565b80156109425780601f1061091757610100808354040283529160200191610942565b820191906000526020600020905b81548152906001019060200180831161092557829003601f168201915b505050505081526020016005820154815250509050919050565b60006109686001611639565b90506040518060c001604052808281526020013373ffffffffffffffffffffffffffffffffffffffff16815260200185815260200184815260200183815260200142815250600360008381526020019081526020016000206000820151816000015560208201518160010160006101000a81548173ffffffffffffffffffffffffffffffffffffffff021916908373ffffffffffffffffffffffffffffffffffffffff1602179055506040820151816002019081610a26919061237f565b506060820151816003019081610a3c919061237f565b506080820151816004019081610a52919061237f565b5060a08201518160050155905050600660003373ffffffffffffffffffffffffffffffffffffffff1673ffffffffffffffffffffffffffffffffffffffff168152602001908152602001600020819080600181540180825580915050600190039060005260206000200160009091909190915055610ad06001611647565b3373ffffffffffffffffffffffffffffffffffffffff16817f691a83fa6f70dcf5e0a5d7cfe87caccd6725ac7cb7f1e24ede39c847c5639185868642604051610b1b93929190612451565b60405180910390a350505050565b610b316115bb565b610b3b600061165d565b565b60008060009054906101000a900473ffffffffffffffffffffffffffffffffffffffff16905090565b6000610b726001611639565b905090565b610b7f611775565b6000600460008481526020019081526020016000206000015403610bd8576040517f08c379a0000000000000000000000000000000000000000000000000000000008152600401610bcf906124e2565b60405180910390fd5b600460008381526020019081526020016000206040518060e001604052908160008201548152602001600182015481526020016002820160009054906101000a900473ffffffffffffffffffffffffffffffffffffffff1673ffffffffffffffffffffffffffffffffffffffff1673ffffffffffffffffffffffffffffffffffffffff1681526020016003820154815260200160048201548152602001600582018054610c8490612084565b80601f0160208091040260200160405190810160405280929190818152602001828054610cb090612084565b8015610cfd5780601f10610cd257610100808354040283529160200191610cfd565b820191906000526020600020905b815481529060010190602001808311610ce057829003601f168201915b505050505081526020016006820160009054906101000a900460ff1615151515815250509050919050565b60056020528160005260406000208181548110610d4457600080fd5b90600052602060002001600091509150505481565b60036020528060005260406000206000915090508060000154908060010160009054906101000a900473ffffffffffffffffffffffffffffffffffffffff1690806002018054610da890612084565b80601f0160208091040260200160405190810160405280929190818152602001828054610dd490612084565b8015610e215780601f10610df657610100808354040283529160200191610e21565b820191906000526020600020905b815481529060010190602001808311610e0457829003601f168201915b505050505090806003018054610e3690612084565b80601f0160208091040260200160405190810160405280929190818152602001828054610e6290612084565b8015610eaf5780601f10610e8457610100808354040283529160200191610eaf565b820191906000526020600020905b815481529060010190602001808311610e9257829003601f168201915b505050505090806004018054610ec490612084565b80601f0160208091040260200160405190810160405280929190818152602001828054610ef090612084565b8015610f3d5780601f10610f1257610100808354040283529160200191610f3d565b820191906000526020600020905b815481529060010190602001808311610f2057829003601f168201915b5050505050908060050154905086565b60006004600083815260200190815260200160002090508060060160009054906101000a900460ff1615610fb6576040517f08c379a0000000000000000000000000000000000000000000000000000000008152600401610fad9061254e565b60405180910390fd5b8060030154341015610ffd576040517f08c379a0000000000000000000000000000000000000000000000000000000008152600401610ff4906125ba565b60405180910390fd5b60006003600083600101548152602001908152602001600020600001540361105a576040517f08c379a0000000000000000000000000000000000000000000000000000000008152600401611051906121b3565b60405180910390fd5b338160020160006101000a81548173ffffffffffffffffffffffffffffffffffffffff021916908373ffffffffffffffffffffffffffffffffffffffff16021790555060018160060160006101000a81548160ff0219169083151502179055506000600360008360010154815260200190815260200160002060010160009054906101000a900473ffffffffffffffffffffffffffffffffffffffff16905060008173ffffffffffffffffffffffffffffffffffffffff163460405161111f906120e6565b60006040518083038185875af1925050503d806000811461115c576040519150601f19603f3d011682016040523d82523d6000602084013e611161565b606091505b50509050806111a5576040517f08c379a000000000000000000000000000000000000000000000000000000000815260040161119c90612626565b60405180910390fd5b3373ffffffffffffffffffffffffffffffffffffffff168360010154857f9523e47a1dba82b890c0ea360ff70577dc86c924b96882d750ba484948b2377660405160405180910390a48173ffffffffffffffffffffffffffffffffffffffff1683600101547fff50aeaf5513a2bfcf5c38af0d681d05e9a00cd91cc42ab2e143549595e5f1723460405161123991906118c1565b60405180910390a350505050565b3373ffffffffffffffffffffffffffffffffffffffff166003600086815260200190815260200160002060010160009054906101000a900473ffffffffffffffffffffffffffffffffffffffff1673ffffffffffffffffffffffffffffffffffffffff16146112eb576040517f08c379a00000000000000000000000000000000000000000000000000000000081526004016112e290612692565b60405180910390fd5b60006112f76002611639565b90506040518060e00160405280828152602001868152602001600073ffffffffffffffffffffffffffffffffffffffff1681526020018581526020018481526020018381526020016000151581525060046000838152602001908152602001600020600082015181600001556020820151816001015560408201518160020160006101000a81548173ffffffffffffffffffffffffffffffffffffffff021916908373ffffffffffffffffffffffffffffffffffffffff160217905550606082015181600301556080820151816004015560a08201518160050190816113dd919061237f565b5060c08201518160060160006101000a81548160ff021916908315150217905550905050600560008681526020019081526020016000208190806001815401808255809150506001900390600052602060002001600090919091909150556114456002611647565b600073ffffffffffffffffffffffffffffffffffffffff1685827ff6c08ab32de41b354144afe5fba73e1057289b82f752874cffd38061719c6476878787604051611492939291906126b2565b60405180910390a45050505050565b6060600660008373ffffffffffffffffffffffffffffffffffffffff1673ffffffffffffffffffffffffffffffffffffffff16815260200190815260200160002080548060200260200160405190810160405280929190818152602001828054801561152c57602002820191906000526020600020905b815481526020019060010190808311611518575b50505050509050919050565b6115406115bb565b600073ffffffffffffffffffffffffffffffffffffffff168173ffffffffffffffffffffffffffffffffffffffff16036115af576040517f08c379a00000000000000000000000000000000000000000000000000000000081526004016115a690612762565b60405180910390fd5b6115b88161165d565b50565b6115c3611721565b73ffffffffffffffffffffffffffffffffffffffff166115e1610b3d565b73ffffffffffffffffffffffffffffffffffffffff1614611637576040517f08c379a000000000000000000000000000000000000000000000000000000000815260040161162e906127ce565b60405180910390fd5b565b600081600001549050919050565b6001816000016000828254019250508190555050565b60008060009054906101000a900473ffffffffffffffffffffffffffffffffffffffff169050816000806101000a81548173ffffffffffffffffffffffffffffffffffffffff021916908373ffffffffffffffffffffffffffffffffffffffff1602179055508173ffffffffffffffffffffffffffffffffffffffff168173ffffffffffffffffffffffffffffffffffffffff167f8be0079c531659141344cd1fd0a4f28419497f9722a3daafe3b4186f6b6457e060405160405180910390a35050565b600033905090565b6040518060c0016040528060008152602001600073ffffffffffffffffffffffffffffffffffffffff168152602001606081526020016060815260200160608152602001600081525090565b6040518060e001604052806000815260200160008152602001600073ffffffffffffffffffffffffffffffffffffffff1681526020016000815260200160008152602001606081526020016000151581525090565b6000604051905090565b600080fd5b600080fd5b600073ffffffffffffffffffffffffffffffffffffffff82169050919050565b6000611809826117de565b9050919050565b611819816117fe565b811461182457600080fd5b50565b60008135905061183681611810565b92915050565b6000819050919050565b61184f8161183c565b811461185a57600080fd5b50565b60008135905061186c81611846565b92915050565b60008060408385031215611889576118886117d4565b5b600061189785828601611827565b92505060206118a88582860161185d565b9150509250929050565b6118bb8161183c565b82525050565b60006020820190506118d660008301846118b2565b92915050565b6000602082840312156118f2576118f16117d4565b5b60006119008482850161185d565b91505092915050565b611912816117fe565b82525050565b600081519050919050565b600082825260208201905092915050565b60005b83811015611952578082015181840152602081019050611937565b60008484015250505050565b6000601f19601f8301169050919050565b600061197a82611918565b6119848185611923565b9350611994818560208601611934565b61199d8161195e565b840191505092915050565b60008115159050919050565b6119bd816119a8565b82525050565b600060e0820190506119d8600083018a6118b2565b6119e560208301896118b2565b6119f26040830188611909565b6119ff60608301876118b2565b611a0c60808301866118b2565b81810360a0830152611a1e818561196f565b9050611a2d60c08301846119b4565b98975050505050505050565b600081519050919050565b600082825260208201905092915050565b6000819050602082019050919050565b611a6e8161183c565b82525050565b6000611a808383611a65565b60208301905092915050565b6000602082019050919050565b6000611aa482611a39565b611aae8185611a44565b9350611ab983611a55565b8060005b83811015611aea578151611ad18882611a74565b9750611adc83611a8c565b925050600181019050611abd565b5085935050505092915050565b60006020820190508181036000830152611b118184611a99565b905092915050565b611b22816117fe565b82525050565b600082825260208201905092915050565b6000611b4482611918565b611b4e8185611b28565b9350611b5e818560208601611934565b611b678161195e565b840191505092915050565b600060c083016000830151611b8a6000860182611a65565b506020830151611b9d6020860182611b19565b5060408301518482036040860152611bb58282611b39565b91505060608301518482036060860152611bcf8282611b39565b91505060808301518482036080860152611be98282611b39565b91505060a0830151611bfe60a0860182611a65565b508091505092915050565b60006020820190508181036000830152611c238184611b72565b905092915050565b600080fd5b600080fd5b7f4e487b7100000000000000000000000000000000000000000000000000000000600052604160045260246000fd5b611c6d8261195e565b810181811067ffffffffffffffff82111715611c8c57611c8b611c35565b5b80604052505050565b6000611c9f6117ca565b9050611cab8282611c64565b919050565b600067ffffffffffffffff821115611ccb57611cca611c35565b5b611cd48261195e565b9050602081019050919050565b82818337600083830152505050565b6000611d03611cfe84611cb0565b611c95565b905082815260208101848484011115611d1f57611d1e611c30565b5b611d2a848285611ce1565b509392505050565b600082601f830112611d4757611d46611c2b565b5b8135611d57848260208601611cf0565b91505092915050565b600080600060608486031215611d7957611d786117d4565b5b600084013567ffffffffffffffff811115611d9757611d966117d9565b5b611da386828701611d32565b935050602084013567ffffffffffffffff811115611dc457611dc36117d9565b5b611dd086828701611d32565b925050604084013567ffffffffffffffff811115611df157611df06117d9565b5b611dfd86828701611d32565b9150509250925092565b6000602082019050611e1c6000830184611909565b92915050565b611e2b816119a8565b82525050565b600060e083016000830151611e496000860182611a65565b506020830151611e5c6020860182611a65565b506040830151611e6f6040860182611b19565b506060830151611e826060860182611a65565b506080830151611e956080860182611a65565b5060a083015184820360a0860152611ead8282611b39565b91505060c0830151611ec260c0860182611e22565b508091505092915050565b60006020820190508181036000830152611ee78184611e31565b905092915050565b60008060408385031215611f0657611f056117d4565b5b6000611f148582860161185d565b9250506020611f258582860161185d565b9150509250929050565b600060c082019050611f4460008301896118b2565b611f516020830188611909565b8181036040830152611f63818761196f565b90508181036060830152611f77818661196f565b90508181036080830152611f8b818561196f565b9050611f9a60a08301846118b2565b979650505050505050565b60008060008060808587031215611fbf57611fbe6117d4565b5b6000611fcd8782880161185d565b9450506020611fde8782880161185d565b9350506040611fef8782880161185d565b925050606085013567ffffffffffffffff8111156120105761200f6117d9565b5b61201c87828801611d32565b91505092959194509250565b60006020828403121561203e5761203d6117d4565b5b600061204c84828501611827565b91505092915050565b7f4e487b7100000000000000000000000000000000000000000000000000000000600052602260045260246000fd5b6000600282049050600182168061209c57607f821691505b6020821081036120af576120ae612055565b5b50919050565b600081905092915050565b50565b60006120d06000836120b5565b91506120db826120c0565b600082019050919050565b60006120f1826120c3565b9150819050919050565b7f5769746864726177616c206661696c6564000000000000000000000000000000600082015250565b6000612131601183611923565b915061213c826120fb565b602082019050919050565b6000602082019050818103600083015261216081612124565b9050919050565b7f576f726b20646f6573206e6f7420657869737400000000000000000000000000600082015250565b600061219d601383611923565b91506121a882612167565b602082019050919050565b600060208201905081810360008301526121cc81612190565b9050919050565b60008190508160005260206000209050919050565b60006020601f8301049050919050565b600082821b905092915050565b6000600883026122357fffffffffffffffffffffffffffffffffffffffffffffffffffffffffffffffff826121f8565b61223f86836121f8565b95508019841693508086168417925050509392505050565b6000819050919050565b600061227c6122776122728461183c565b612257565b61183c565b9050919050565b6000819050919050565b61229683612261565b6122aa6122a282612283565b848454612205565b825550505050565b600090565b6122bf6122b2565b6122ca81848461228d565b505050565b5b818110156122ee576122e36000826122b7565b6001810190506122d0565b5050565b601f82111561233357612304816121d3565b61230d846121e8565b8101602085101561231c578190505b612330612328856121e8565b8301826122cf565b50505b505050565b600082821c905092915050565b600061235660001984600802612338565b1980831691505092915050565b600061236f8383612345565b9150826002028217905092915050565b61238882611918565b67ffffffffffffffff8111156123a1576123a0611c35565b5b6123ab8254612084565b6123b68282856122f2565b600060209050601f8311600181146123e957600084156123d7578287015190505b6123e18582612363565b865550612449565b601f1984166123f7866121d3565b60005b8281101561241f578489015182556001820191506020850194506020810190506123fa565b8683101561243c5784890151612438601f891682612345565b8355505b6001600288020188555050505b505050505050565b6000606082019050818103600083015261246b818661196f565b9050818103602083015261247f818561196f565b905061248e60408301846118b2565b949350505050565b7f4c6963656e736520646f6573206e6f7420657869737400000000000000000000600082015250565b60006124cc601683611923565b91506124d782612496565b602082019050919050565b600060208201905081810360008301526124fb816124bf565b9050919050565b7f4c6963656e736520616c72656164792061637469766500000000000000000000600082015250565b6000612538601683611923565b915061254382612502565b602082019050919050565b600060208201905081810360008301526125678161252b565b9050919050565b7f496e73756666696369656e74207061796d656e74000000000000000000000000600082015250565b60006125a4601483611923565b91506125af8261256e565b602082019050919050565b600060208201905081810360008301526125d381612597565b9050919050565b7f526f79616c747920646973747269627574696f6e206661696c65640000000000600082015250565b6000612610601b83611923565b915061261b826125da565b602082019050919050565b6000602082019050818103600083015261263f81612603565b9050919050565b7f4f6e6c792063726561746f722063616e20637265617465206c6963656e736573600082015250565b600061267c602083611923565b915061268782612646565b602082019050919050565b600060208201905081810360008301526126ab8161266f565b9050919050565b60006060820190506126c760008301866118b2565b6126d460208301856118b2565b81810360408301526126e6818461196f565b9050949350505050565b7f4f776e61626c653a206e6577206f776e657220697320746865207a65726f206160008201527f6464726573730000000000000000000000000000000000000000000000000000602082015250565b600061274c602683611923565b9150612757826126f0565b604082019050919050565b6000602082019050818103600083015261277b8161273f565b9050919050565b7f4f776e61626c653a2063616c6c6572206973206e6f7420746865206f776e6572600082015250565b60006127b8602083611923565b91506127c382612782565b602082019050919050565b600060208201905081810360008301526127e7816127ab565b905091905056fea264697066735822122075d7f14947b3e32530753c22e3dd0fd00463104d5c9d37e300b51ab205db158c64736f6c634300081c0033",
  "linkReferences": {},
  "deployedLinkReferences": {}
}